{
  "contractName": "CreditChecker",
  "abi": [
    {
      "inputs": [],
      "name": "getLimit",
      "outputs": [
        {
          "internalType": "uint256",
          "name": "",
          "type": "uint256"
        }
      ],
      "stateMutability": "view",
      "type": "function"
    },
    {
      "inputs": [
        {
          "internalType": "uint256",
          "name": "food",
          "type": "uint256"
        },
        {
          "internalType": "uint256",
          "name": "travel",
          "type": "uint256"
        },
        {
          "internalType": "uint256",
          "name": "stay",
          "type": "uint256"
        }
      ],
      "name": "reduce",
      "outputs": [],
      "stateMutability": "nonpayable",
      "type": "function"
    },
    {
      "inputs": [],
      "name": "resetCredit",
      "outputs": [],
      "stateMutability": "nonpayable",
      "type": "function"
    }
  ],
  "bytecode": "0x608060405261271060005534801561001657600080fd5b50610336806100266000396000f3fe608060405234801561001057600080fd5b50600436106100415760003560e01c80633442bfbe14610046578063b295a00e14610050578063fa20ffb71461006e575b600080fd5b61004e61008a565b005b610058610095565b604051610065919061014d565b60405180910390f35b61008860048036038101906100839190610199565b61009e565b005b612710600081905550565b60008054905090565b60008184846100ad919061021b565b6100b7919061021b565b6000546100c4919061024f565b1015610105576040517f08c379a00000000000000000000000000000000000000000000000000000000081526004016100fc906102e0565b60405180910390fd5b808383610112919061021b565b61011c919061021b565b600054610129919061024f565b600081905550505050565b6000819050919050565b61014781610134565b82525050565b6000602082019050610162600083018461013e565b92915050565b600080fd5b61017681610134565b811461018157600080fd5b50565b6000813590506101938161016d565b92915050565b6000806000606084860312156101b2576101b1610168565b5b60006101c086828701610184565b93505060206101d186828701610184565b92505060406101e286828701610184565b9150509250925092565b7f4e487b7100000000000000000000000000000000000000000000000000000000600052601160045260246000fd5b600061022682610134565b915061023183610134565b9250828201905080821115610249576102486101ec565b5b92915050565b600061025a82610134565b915061026583610134565b925082820390508181111561027d5761027c6101ec565b5b92915050565b600082825260208201905092915050565b7f4e6f2043726564697420417661696c61626c6500000000000000000000000000600082015250565b60006102ca601383610283565b91506102d582610294565b602082019050919050565b600060208201905081810360008301526102f9816102bd565b905091905056fea2646970667358221220650316ba9fcd22caf2688a3aa9e0dc2ab209c8150feb8b1c11c1bd614f3c824964736f6c63430008110033",
  "immutableReferences": {},
  "source": "// SPDX-License-Identifier: MIT\r\npragma solidity >= 0.5.0 <0.9.0;\r\n\r\ncontract CreditChecker {\r\n    //2019130011 - Divesh Choudhary\r\n    uint credit = 10000;\r\n\r\n    function getLimit() public view returns(uint){\r\n        return credit;\r\n    }\r\n\r\n    function reduce(uint food, uint travel, uint stay) public {\r\n        require( credit - (travel + food + stay) >= 0, \"No Credit Available\");\r\n        credit = credit - (travel + food + stay);\r\n    }\r\n\r\n    function resetCredit() public {\r\n        credit = 10000;\r\n    }\r\n}",
  "sourcePath": "C:\\Users\\Lenovo\\Desktop\\Truffle test\\New\\contracts\\credit.sol",
  "compiler": {
    "name": "solc",
    "version": "0.8.17+commit.8df45f5f.Emscripten.clang"
  },
  "schemaVersion": "3.4.10",
  "updatedAt": "2022-11-01T09:49:35.809Z",
  "devdoc": {
    "kind": "dev",
    "methods": {},
    "version": 1
  },
  "userdoc": {
    "kind": "user",
    "methods": {},
    "version": 1
  }
}